{
  "_format": "hh-sol-artifact-1",
  "contractName": "DappWorks",
  "sourceName": "src/contracts/DappWorks.sol",
  "abi": [
    {
      "anonymous": false,
      "inputs": [
        {
          "indexed": true,
          "internalType": "uint256",
          "name": "assignmentId",
          "type": "uint256"
        },
        {
          "indexed": true,
          "internalType": "address",
          "name": "student",
          "type": "address"
        },
        {
          "indexed": false,
          "internalType": "string",
          "name": "title",
          "type": "string"
        }
      ],
      "name": "CertificateIssued",
      "type": "event"
    },
    {
      "anonymous": false,
      "inputs": [
        {
          "indexed": true,
          "internalType": "address",
          "name": "previousOwner",
          "type": "address"
        },
        {
          "indexed": true,
          "internalType": "address",
          "name": "newOwner",
          "type": "address"
        }
      ],
      "name": "OwnershipTransferred",
      "type": "event"
    },
    {
      "inputs": [
        {
          "internalType": "uint256",
          "name": "_id",
          "type": "uint256"
        },
        {
          "internalType": "uint256",
          "name": "_applicantIndex",
          "type": "uint256"
        }
      ],
      "name": "acceptApplicant",
      "outputs": [],
      "stateMutability": "nonpayable",
      "type": "function"
    },
    {
      "inputs": [
        {
          "internalType": "uint256",
          "name": "id",
          "type": "uint256"
        },
        {
          "internalType": "uint256",
          "name": "jId",
          "type": "uint256"
        },
        {
          "internalType": "address",
          "name": "bidder",
          "type": "address"
        }
      ],
      "name": "acceptBid",
      "outputs": [],
      "stateMutability": "nonpayable",
      "type": "function"
    },
    {
      "inputs": [
        {
          "internalType": "string",
          "name": "jobTitle",
          "type": "string"
        },
        {
          "internalType": "string",
          "name": "description",
          "type": "string"
        },
        {
          "internalType": "string",
          "name": "tags",
          "type": "string"
        }
      ],
      "name": "addJobListing",
      "outputs": [],
      "stateMutability": "payable",
      "type": "function"
    },
    {
      "inputs": [
        {
          "internalType": "uint256",
          "name": "_id",
          "type": "uint256"
        }
      ],
      "name": "applyForAssignment",
      "outputs": [],
      "stateMutability": "nonpayable",
      "type": "function"
    },
    {
      "inputs": [
        {
          "internalType": "uint256",
          "name": "id",
          "type": "uint256"
        }
      ],
      "name": "bidForJob",
      "outputs": [],
      "stateMutability": "nonpayable",
      "type": "function"
    },
    {
      "inputs": [
        {
          "internalType": "uint256",
          "name": "id",
          "type": "uint256"
        }
      ],
      "name": "bidStatus",
      "outputs": [
        {
          "internalType": "bool",
          "name": "",
          "type": "bool"
        }
      ],
      "stateMutability": "view",
      "type": "function"
    },
    {
      "inputs": [
        {
          "internalType": "uint256",
          "name": "_id",
          "type": "uint256"
        }
      ],
      "name": "completeAssignment",
      "outputs": [],
      "stateMutability": "nonpayable",
      "type": "function"
    },
    {
      "inputs": [
        {
          "internalType": "string",
          "name": "_title",
          "type": "string"
        },
        {
          "internalType": "string",
          "name": "_description",
          "type": "string"
        },
        {
          "internalType": "string",
          "name": "_tags",
          "type": "string"
        }
      ],
      "name": "createAssignment",
      "outputs": [],
      "stateMutability": "nonpayable",
      "type": "function"
    },
    {
      "inputs": [
        {
          "internalType": "uint256",
          "name": "id",
          "type": "uint256"
        }
      ],
      "name": "deleteJob",
      "outputs": [],
      "stateMutability": "nonpayable",
      "type": "function"
    },
    {
      "inputs": [
        {
          "internalType": "uint256",
          "name": "id",
          "type": "uint256"
        }
      ],
      "name": "dispute",
      "outputs": [],
      "stateMutability": "nonpayable",
      "type": "function"
    },
    {
      "inputs": [
        {
          "internalType": "uint256",
          "name": "id",
          "type": "uint256"
        }
      ],
      "name": "getAcceptedFreelancer",
      "outputs": [
        {
          "components": [
            {
              "internalType": "uint256",
              "name": "id",
              "type": "uint256"
            },
            {
              "internalType": "uint256",
              "name": "jId",
              "type": "uint256"
            },
            {
              "internalType": "address",
              "name": "account",
              "type": "address"
            },
            {
              "internalType": "bool",
              "name": "isAssigned",
              "type": "bool"
            }
          ],
          "internalType": "struct DappWorks.FreelancerStruct",
          "name": "",
          "type": "tuple"
        }
      ],
      "stateMutability": "view",
      "type": "function"
    },
    {
      "inputs": [],
      "name": "getAssignedJobs",
      "outputs": [
        {
          "components": [
            {
              "internalType": "uint256",
              "name": "id",
              "type": "uint256"
            },
            {
              "internalType": "address",
              "name": "owner",
              "type": "address"
            },
            {
              "internalType": "address",
              "name": "freelancer",
              "type": "address"
            },
            {
              "internalType": "string",
              "name": "jobTitle",
              "type": "string"
            },
            {
              "internalType": "string",
              "name": "description",
              "type": "string"
            },
            {
              "internalType": "string",
              "name": "tags",
              "type": "string"
            },
            {
              "internalType": "uint256",
              "name": "prize",
              "type": "uint256"
            },
            {
              "internalType": "bool",
              "name": "paidOut",
              "type": "bool"
            },
            {
              "internalType": "uint256",
              "name": "timestamp",
              "type": "uint256"
            },
            {
              "internalType": "bool",
              "name": "listed",
              "type": "bool"
            },
            {
              "internalType": "bool",
              "name": "disputed",
              "type": "bool"
            },
            {
              "internalType": "address[]",
              "name": "bidders",
              "type": "address[]"
            }
          ],
          "internalType": "struct DappWorks.JobStruct[]",
          "name": "AssignedJobs",
          "type": "tuple[]"
        }
      ],
      "stateMutability": "view",
      "type": "function"
    },
    {
      "inputs": [
        {
          "internalType": "uint256",
          "name": "id",
          "type": "uint256"
        }
      ],
      "name": "getAssignment",
      "outputs": [
        {
          "components": [
            {
              "internalType": "uint256",
              "name": "id",
              "type": "uint256"
            },
            {
              "internalType": "address",
              "name": "owner",
              "type": "address"
            },
            {
              "internalType": "string",
              "name": "title",
              "type": "string"
            },
            {
              "internalType": "string",
              "name": "description",
              "type": "string"
            },
            {
              "internalType": "string",
              "name": "tags",
              "type": "string"
            },
            {
              "internalType": "address[]",
              "name": "applicants",
              "type": "address[]"
            },
            {
              "internalType": "address",
              "name": "acceptedStudent",
              "type": "address"
            },
            {
              "internalType": "bool",
              "name": "completed",
              "type": "bool"
            },
            {
              "internalType": "bool",
              "name": "certified",
              "type": "bool"
            },
            {
              "internalType": "uint256",
              "name": "timestamp",
              "type": "uint256"
            },
            {
              "internalType": "bool",
              "name": "active",
              "type": "bool"
            }
          ],
          "internalType": "struct DappWorks.AssignmentStruct",
          "name": "",
          "type": "tuple"
        }
      ],
      "stateMutability": "view",
      "type": "function"
    },
    {
      "inputs": [
        {
          "internalType": "uint256",
          "name": "id",
          "type": "uint256"
        }
      ],
      "name": "getAssignmentApplicants",
      "outputs": [
        {
          "internalType": "address[]",
          "name": "",
          "type": "address[]"
        }
      ],
      "stateMutability": "view",
      "type": "function"
    },
    {
      "inputs": [],
      "name": "getAssignments",
      "outputs": [
        {
          "components": [
            {
              "internalType": "uint256",
              "name": "id",
              "type": "uint256"
            },
            {
              "internalType": "address",
              "name": "owner",
              "type": "address"
            },
            {
              "internalType": "string",
              "name": "title",
              "type": "string"
            },
            {
              "internalType": "string",
              "name": "description",
              "type": "string"
            },
            {
              "internalType": "string",
              "name": "tags",
              "type": "string"
            },
            {
              "internalType": "address[]",
              "name": "applicants",
              "type": "address[]"
            },
            {
              "internalType": "address",
              "name": "acceptedStudent",
              "type": "address"
            },
            {
              "internalType": "bool",
              "name": "completed",
              "type": "bool"
            },
            {
              "internalType": "bool",
              "name": "certified",
              "type": "bool"
            },
            {
              "internalType": "uint256",
              "name": "timestamp",
              "type": "uint256"
            },
            {
              "internalType": "bool",
              "name": "active",
              "type": "bool"
            }
          ],
          "internalType": "struct DappWorks.AssignmentStruct[]",
          "name": "ActiveAssignments",
          "type": "tuple[]"
        }
      ],
      "stateMutability": "view",
      "type": "function"
    },
    {
      "inputs": [
        {
          "internalType": "uint256",
          "name": "id",
          "type": "uint256"
        }
      ],
      "name": "getBidders",
      "outputs": [
        {
          "components": [
            {
              "internalType": "uint256",
              "name": "id",
              "type": "uint256"
            },
            {
              "internalType": "uint256",
              "name": "jId",
              "type": "uint256"
            },
            {
              "internalType": "address",
              "name": "account",
              "type": "address"
            }
          ],
          "internalType": "struct DappWorks.BidStruct[]",
          "name": "Bidders",
          "type": "tuple[]"
        }
      ],
      "stateMutability": "view",
      "type": "function"
    },
    {
      "inputs": [],
      "name": "getBidsForBidder",
      "outputs": [
        {
          "components": [
            {
              "internalType": "uint256",
              "name": "id",
              "type": "uint256"
            },
            {
              "internalType": "uint256",
              "name": "jId",
              "type": "uint256"
            },
            {
              "internalType": "address",
              "name": "account",
              "type": "address"
            }
          ],
          "internalType": "struct DappWorks.BidStruct[]",
          "name": "Bids",
          "type": "tuple[]"
        }
      ],
      "stateMutability": "view",
      "type": "function"
    },
    {
      "inputs": [
        {
          "internalType": "uint256",
          "name": "id",
          "type": "uint256"
        }
      ],
      "name": "getFreelancers",
      "outputs": [
        {
          "components": [
            {
              "internalType": "uint256",
              "name": "id",
              "type": "uint256"
            },
            {
              "internalType": "uint256",
              "name": "jId",
              "type": "uint256"
            },
            {
              "internalType": "address",
              "name": "account",
              "type": "address"
            },
            {
              "internalType": "bool",
              "name": "isAssigned",
              "type": "bool"
            }
          ],
          "internalType": "struct DappWorks.FreelancerStruct[]",
          "name": "",
          "type": "tuple[]"
        }
      ],
      "stateMutability": "view",
      "type": "function"
    },
    {
      "inputs": [
        {
          "internalType": "uint256",
          "name": "id",
          "type": "uint256"
        }
      ],
      "name": "getJob",
      "outputs": [
        {
          "components": [
            {
              "internalType": "uint256",
              "name": "id",
              "type": "uint256"
            },
            {
              "internalType": "address",
              "name": "owner",
              "type": "address"
            },
            {
              "internalType": "address",
              "name": "freelancer",
              "type": "address"
            },
            {
              "internalType": "string",
              "name": "jobTitle",
              "type": "string"
            },
            {
              "internalType": "string",
              "name": "description",
              "type": "string"
            },
            {
              "internalType": "string",
              "name": "tags",
              "type": "string"
            },
            {
              "internalType": "uint256",
              "name": "prize",
              "type": "uint256"
            },
            {
              "internalType": "bool",
              "name": "paidOut",
              "type": "bool"
            },
            {
              "internalType": "uint256",
              "name": "timestamp",
              "type": "uint256"
            },
            {
              "internalType": "bool",
              "name": "listed",
              "type": "bool"
            },
            {
              "internalType": "bool",
              "name": "disputed",
              "type": "bool"
            },
            {
              "internalType": "address[]",
              "name": "bidders",
              "type": "address[]"
            }
          ],
          "internalType": "struct DappWorks.JobStruct",
          "name": "",
          "type": "tuple"
        }
      ],
      "stateMutability": "view",
      "type": "function"
    },
    {
      "inputs": [],
      "name": "getJobs",
      "outputs": [
        {
          "components": [
            {
              "internalType": "uint256",
              "name": "id",
              "type": "uint256"
            },
            {
              "internalType": "address",
              "name": "owner",
              "type": "address"
            },
            {
              "internalType": "address",
              "name": "freelancer",
              "type": "address"
            },
            {
              "internalType": "string",
              "name": "jobTitle",
              "type": "string"
            },
            {
              "internalType": "string",
              "name": "description",
              "type": "string"
            },
            {
              "internalType": "string",
              "name": "tags",
              "type": "string"
            },
            {
              "internalType": "uint256",
              "name": "prize",
              "type": "uint256"
            },
            {
              "internalType": "bool",
              "name": "paidOut",
              "type": "bool"
            },
            {
              "internalType": "uint256",
              "name": "timestamp",
              "type": "uint256"
            },
            {
              "internalType": "bool",
              "name": "listed",
              "type": "bool"
            },
            {
              "internalType": "bool",
              "name": "disputed",
              "type": "bool"
            },
            {
              "internalType": "address[]",
              "name": "bidders",
              "type": "address[]"
            }
          ],
          "internalType": "struct DappWorks.JobStruct[]",
          "name": "ActiveJobs",
          "type": "tuple[]"
        }
      ],
      "stateMutability": "view",
      "type": "function"
    },
    {
      "inputs": [],
      "name": "getJobsForBidder",
      "outputs": [
        {
          "components": [
            {
              "internalType": "uint256",
              "name": "id",
              "type": "uint256"
            },
            {
              "internalType": "address",
              "name": "owner",
              "type": "address"
            },
            {
              "internalType": "address",
              "name": "freelancer",
              "type": "address"
            },
            {
              "internalType": "string",
              "name": "jobTitle",
              "type": "string"
            },
            {
              "internalType": "string",
              "name": "description",
              "type": "string"
            },
            {
              "internalType": "string",
              "name": "tags",
              "type": "string"
            },
            {
              "internalType": "uint256",
              "name": "prize",
              "type": "uint256"
            },
            {
              "internalType": "bool",
              "name": "paidOut",
              "type": "bool"
            },
            {
              "internalType": "uint256",
              "name": "timestamp",
              "type": "uint256"
            },
            {
              "internalType": "bool",
              "name": "listed",
              "type": "bool"
            },
            {
              "internalType": "bool",
              "name": "disputed",
              "type": "bool"
            },
            {
              "internalType": "address[]",
              "name": "bidders",
              "type": "address[]"
            }
          ],
          "internalType": "struct DappWorks.JobStruct[]",
          "name": "bidderJobs",
          "type": "tuple[]"
        }
      ],
      "stateMutability": "view",
      "type": "function"
    },
    {
      "inputs": [],
      "name": "getMyAssignmentApplications",
      "outputs": [
        {
          "components": [
            {
              "internalType": "uint256",
              "name": "id",
              "type": "uint256"
            },
            {
              "internalType": "address",
              "name": "owner",
              "type": "address"
            },
            {
              "internalType": "string",
              "name": "title",
              "type": "string"
            },
            {
              "internalType": "string",
              "name": "description",
              "type": "string"
            },
            {
              "internalType": "string",
              "name": "tags",
              "type": "string"
            },
            {
              "internalType": "address[]",
              "name": "applicants",
              "type": "address[]"
            },
            {
              "internalType": "address",
              "name": "acceptedStudent",
              "type": "address"
            },
            {
              "internalType": "bool",
              "name": "completed",
              "type": "bool"
            },
            {
              "internalType": "bool",
              "name": "certified",
              "type": "bool"
            },
            {
              "internalType": "uint256",
              "name": "timestamp",
              "type": "uint256"
            },
            {
              "internalType": "bool",
              "name": "active",
              "type": "bool"
            }
          ],
          "internalType": "struct DappWorks.AssignmentStruct[]",
          "name": "AppliedAssignments",
          "type": "tuple[]"
        }
      ],
      "stateMutability": "view",
      "type": "function"
    },
    {
      "inputs": [],
      "name": "getMyAssignments",
      "outputs": [
        {
          "components": [
            {
              "internalType": "uint256",
              "name": "id",
              "type": "uint256"
            },
            {
              "internalType": "address",
              "name": "owner",
              "type": "address"
            },
            {
              "internalType": "string",
              "name": "title",
              "type": "string"
            },
            {
              "internalType": "string",
              "name": "description",
              "type": "string"
            },
            {
              "internalType": "string",
              "name": "tags",
              "type": "string"
            },
            {
              "internalType": "address[]",
              "name": "applicants",
              "type": "address[]"
            },
            {
              "internalType": "address",
              "name": "acceptedStudent",
              "type": "address"
            },
            {
              "internalType": "bool",
              "name": "completed",
              "type": "bool"
            },
            {
              "internalType": "bool",
              "name": "certified",
              "type": "bool"
            },
            {
              "internalType": "uint256",
              "name": "timestamp",
              "type": "uint256"
            },
            {
              "internalType": "bool",
              "name": "active",
              "type": "bool"
            }
          ],
          "internalType": "struct DappWorks.AssignmentStruct[]",
          "name": "MyAssignments",
          "type": "tuple[]"
        }
      ],
      "stateMutability": "view",
      "type": "function"
    },
    {
      "inputs": [],
      "name": "getMyJobs",
      "outputs": [
        {
          "components": [
            {
              "internalType": "uint256",
              "name": "id",
              "type": "uint256"
            },
            {
              "internalType": "address",
              "name": "owner",
              "type": "address"
            },
            {
              "internalType": "address",
              "name": "freelancer",
              "type": "address"
            },
            {
              "internalType": "string",
              "name": "jobTitle",
              "type": "string"
            },
            {
              "internalType": "string",
              "name": "description",
              "type": "string"
            },
            {
              "internalType": "string",
              "name": "tags",
              "type": "string"
            },
            {
              "internalType": "uint256",
              "name": "prize",
              "type": "uint256"
            },
            {
              "internalType": "bool",
              "name": "paidOut",
              "type": "bool"
            },
            {
              "internalType": "uint256",
              "name": "timestamp",
              "type": "uint256"
            },
            {
              "internalType": "bool",
              "name": "listed",
              "type": "bool"
            },
            {
              "internalType": "bool",
              "name": "disputed",
              "type": "bool"
            },
            {
              "internalType": "address[]",
              "name": "bidders",
              "type": "address[]"
            }
          ],
          "internalType": "struct DappWorks.JobStruct[]",
          "name": "MyJobs",
          "type": "tuple[]"
        }
      ],
      "stateMutability": "view",
      "type": "function"
    },
    {
      "inputs": [
        {
          "internalType": "uint256",
          "name": "",
          "type": "uint256"
        },
        {
          "internalType": "address",
          "name": "",
          "type": "address"
        }
      ],
      "name": "hasAppliedForAssignment",
      "outputs": [
        {
          "internalType": "bool",
          "name": "",
          "type": "bool"
        }
      ],
      "stateMutability": "view",
      "type": "function"
    },
    {
      "inputs": [
        {
          "internalType": "uint256",
          "name": "",
          "type": "uint256"
        },
        {
          "internalType": "address",
          "name": "",
          "type": "address"
        }
      ],
      "name": "hasPlacedBid",
      "outputs": [
        {
          "internalType": "bool",
          "name": "",
          "type": "bool"
        }
      ],
      "stateMutability": "view",
      "type": "function"
    },
    {
      "inputs": [
        {
          "internalType": "uint256",
          "name": "_id",
          "type": "uint256"
        }
      ],
      "name": "issueCertificate",
      "outputs": [],
      "stateMutability": "nonpayable",
      "type": "function"
    },
    {
      "inputs": [],
      "name": "owner",
      "outputs": [
        {
          "internalType": "address",
          "name": "",
          "type": "address"
        }
      ],
      "stateMutability": "view",
      "type": "function"
    },
    {
      "inputs": [
        {
          "internalType": "uint256",
          "name": "id",
          "type": "uint256"
        }
      ],
      "name": "payout",
      "outputs": [],
      "stateMutability": "nonpayable",
      "type": "function"
    },
    {
      "inputs": [],
      "name": "platformCharge",
      "outputs": [
        {
          "internalType": "uint256",
          "name": "",
          "type": "uint256"
        }
      ],
      "stateMutability": "view",
      "type": "function"
    },
    {
      "inputs": [],
      "name": "renounceOwnership",
      "outputs": [],
      "stateMutability": "nonpayable",
      "type": "function"
    },
    {
      "inputs": [
        {
          "internalType": "uint256",
          "name": "id",
          "type": "uint256"
        }
      ],
      "name": "resolved",
      "outputs": [],
      "stateMutability": "nonpayable",
      "type": "function"
    },
    {
      "inputs": [
        {
          "internalType": "uint256",
          "name": "jId",
          "type": "uint256"
        },
        {
          "internalType": "uint256",
          "name": "id",
          "type": "uint256"
        }
      ],
      "name": "revoke",
      "outputs": [],
      "stateMutability": "nonpayable",
      "type": "function"
    },
    {
      "inputs": [
        {
          "internalType": "address",
          "name": "newOwner",
          "type": "address"
        }
      ],
      "name": "transferOwnership",
      "outputs": [],
      "stateMutability": "nonpayable",
      "type": "function"
    },
    {
      "inputs": [
        {
          "internalType": "uint256",
          "name": "id",
          "type": "uint256"
        },
        {
          "internalType": "string",
          "name": "jobTitle",
          "type": "string"
        },
        {
          "internalType": "string",
          "name": "description",
          "type": "string"
        },
        {
          "internalType": "string",
          "name": "tags",
          "type": "string"
        }
      ],
      "name": "updateJob",
      "outputs": [],
      "stateMutability": "nonpayable",
      "type": "function"
    }
  ],
  "bytecode": "0x608060405260056004553480156200001657600080fd5b5062000022336200002c565b600180556200007c565b600080546001600160a01b038381166001600160a01b0319831681178455604051919092169283917f8be0079c531659141344cd1fd0a4f28419497f9722a3daafe3b4186f6b6457e09190a35050565b6155fc806200008c6000396000f3fe6080604052600436106102025760003560e01c80638d498e5711610118578063c4ff0b45116100a0578063def5e7371161006f578063def5e73714610631578063e115234314610651578063e42334a214610671578063eb361f8114610686578063f2fde38b146106b357600080fd5b8063c4ff0b45146105d4578063d0909615146105e9578063d80fa7cf146105fc578063d8393bde1461061c57600080fd5b8063a7e2a330116100e7578063a7e2a330146104ff578063b9b7efb61461053a578063bb5974771461055a578063be1b6fc614610587578063bf22c457146105a757600080fd5b80638d498e57146104725780638da5cb5b146104ad5780639180f2a0146104d55780639b00214c146104ea57600080fd5b80635239c7271161019b57806365a990f01161016a57806365a990f0146103e457806368581ebd14610404578063715018a61461041957806386d6282c1461042e5780638b1422251461044e57600080fd5b80635239c727146103575780635e387905146103775780635fc69e3b146103a45780636358bb8c146103c457600080fd5b8063301d99ce116101d7578063301d99ce146102bb57806343323ce9146102dd5780634b3f53e0146102fd5780634fa7b5071461032a57600080fd5b80620a106b14610207578062ebd5fa146102575780630f5a0bc514610279578063288676241461029b575b600080fd5b34801561021357600080fd5b50610242610222366004614c4a565b600b60209081526000928352604080842090915290825290205460ff1681565b60405190151581526020015b60405180910390f35b34801561026357600080fd5b5061026c6106d3565b60405161024e9190614df9565b34801561028557600080fd5b50610299610294366004614e5b565b610b0b565b005b3480156102a757600080fd5b506102996102b6366004614e7d565b610cb0565b3480156102c757600080fd5b506102d0610f04565b60405161024e9190614f7e565b3480156102e957600080fd5b506102996102f8366004614e7d565b611329565b34801561030957600080fd5b5061031d610318366004614e7d565b6114d9565b60405161024e9190614fd3565b34801561033657600080fd5b5061034a610345366004614e7d565b611581565b60405161024e919061504a565b34801561036357600080fd5b50610299610372366004614e7d565b611670565b34801561038357600080fd5b50610397610392366004614e7d565b611793565b60405161024e91906150ac565b3480156103b057600080fd5b506102996103bf366004615168565b611a45565b3480156103d057600080fd5b506102996103df366004614e7d565b611cc0565b3480156103f057600080fd5b506102996103ff3660046151ef565b611dbc565b34801561041057600080fd5b5061026c611eef565b34801561042557600080fd5b50610299612310565b34801561043a57600080fd5b50610299610449366004614e7d565b612324565b34801561045a57600080fd5b5061046460045481565b60405190815260200161024e565b34801561047e57600080fd5b5061024261048d366004614c4a565b600d60209081526000928352604080842090915290825290205460ff1681565b3480156104b957600080fd5b506000546040516001600160a01b03909116815260200161024e565b3480156104e157600080fd5b5061034a612447565b3480156104f657600080fd5b5061026c6126e9565b34801561050b57600080fd5b5061024261051a366004614e7d565b6000908152600b6020908152604080832033845290915290205460ff1690565b34801561054657600080fd5b50610299610555366004614e7d565b612ade565b34801561056657600080fd5b5061057a610575366004614e7d565b612bc8565b60405161024e9190615280565b34801561059357600080fd5b506102996105a2366004614e5b565b612c96565b3480156105b357600080fd5b506105c76105c2366004614e7d565b612e06565b60405161024e91906152c1565b3480156105e057600080fd5b5061026c6130c4565b6102996105f7366004615168565b61353d565b34801561060857600080fd5b50610299610617366004614e7d565b613804565b34801561062857600080fd5b506102d06139bb565b34801561063d57600080fd5b5061029961064c3660046152d4565b613da4565b34801561065d57600080fd5b5061029961066c366004614e7d565b614099565b34801561067d57600080fd5b506102d06142a8565b34801561069257600080fd5b506106a66106a1366004614e7d565b6146cd565b60405161024e9190615309565b3480156106bf57600080fd5b506102996106ce36600461533f565b6147ff565b6060600060015b600254811161075d576000818152600a602052604090205460ff168015610713575060008181526005602052604090206007015460ff16155b801561073857506000818152600560205260409020600201546001600160a01b031633145b1561074b578161074781615370565b9250505b8061075581615370565b9150506106da565b50806001600160401b03811115610776576107766150c6565b6040519080825280602002602001820160405280156107af57816020015b61079c6149fd565b8152602001906001900390816107945790505b509150600060015b6002548111610b05576000818152600a602052604090205460ff1680156107f0575060008181526005602052604090206007015460ff16155b801561081557506000818152600560205260409020600201546001600160a01b031633145b15610af3576000818152600560209081526040918290208251610180810184528154815260018201546001600160a01b03908116938201939093526002820154909216928201929092526003820180549192916060840191906108779061538b565b80601f01602080910402602001604051908101604052809291908181526020018280546108a39061538b565b80156108f05780601f106108c5576101008083540402835291602001916108f0565b820191906000526020600020905b8154815290600101906020018083116108d357829003601f168201915b505050505081526020016004820180546109099061538b565b80601f01602080910402602001604051908101604052809291908181526020018280546109359061538b565b80156109825780601f1061095757610100808354040283529160200191610982565b820191906000526020600020905b81548152906001019060200180831161096557829003601f168201915b5050505050815260200160058201805461099b9061538b565b80601f01602080910402602001604051908101604052809291908181526020018280546109c79061538b565b8015610a145780601f106109e957610100808354040283529160200191610a14565b820191906000526020600020905b8154815290600101906020018083116109f757829003601f168201915b50505091835250506006820154602080830191909152600783015460ff9081161515604080850191909152600885015460608501526009850154808316151560808601526101009004909116151560a0840152600a8401805482518185028101850190935280835260c0909401939192909190830182828015610ac057602002820191906000526020600020905b81546001600160a01b03168152600190910190602001808311610aa2575b505050505081525050848380610ad590615370565b945081518110610ae757610ae76153c6565b60200260200101819052505b80610afd81615370565b9150506107b7565b50505090565b60008281526008602052604090206001015482906001600160a01b03163314610b4f5760405162461bcd60e51b8152600401610b46906153dc565b60405180910390fd5b6000838152600c602052604090205460ff16610b7d5760405162461bcd60e51b8152600401610b4690615409565b6000838152600860208190526040909120015460ff16610bdf5760405162461bcd60e51b815260206004820152601e60248201527f41737369676e6d656e74206973206e6f206c6f6e6765722061637469766500006044820152606401610b46565b6000838152600860205260409020600501548210610c3f5760405162461bcd60e51b815260206004820152601760248201527f496e76616c6964206170706c6963616e7420696e6465780000000000000000006044820152606401610b46565b6000838152600860205260409020600501805483908110610c6257610c626153c6565b600091825260208083209091015494825260089081905260409091206006810180546001600160a01b0319166001600160a01b039096169590951790945592909201805460ff191690555050565b6000818152600a602052604090205460ff16610cde5760405162461bcd60e51b8152600401610b4690615440565b6000818152600560205260409020600101546001600160a01b0316331415610d3c5760405162461bcd60e51b8152602060048201526011602482015270466f7262696464656e20616374696f6e2160781b6044820152606401610b46565b60008181526005602052604090206007015460ff1615610d6e5760405162461bcd60e51b8152600401610b4690615477565b60008181526005602052604090206009015460ff16610dca5760405162461bcd60e51b81526020600482015260186024820152772a3434b9903537b1103430bb32903132b2b7103a30b5b2b760411b6044820152606401610b46565b6000818152600b6020908152604080832033845290915290205460ff1615610e345760405162461bcd60e51b815260206004820152601d60248201527f596f75206861766520706c6163656420612062696420616c72656164790000006044820152606401610b46565b610e3c614a76565b600082815260076020526040902054610e569060016154ae565b815260208082018381523360408085018281526000878152600b865282812084825286528281208054600160ff19909116811790915588825260058752838220600a01805480830182559083528783200180546001600160a01b03199081169096179055978152600786529182208054808901825590835294909120945160039094029094019283559051938201939093559051600290910180549092166001600160a01b03909116179055565b606060008060015b6003548111610f8f576000818152600c602052604090205460ff168015610f4557506000818152600860208190526040909120015460ff165b8015610f6a5750600081815260086020526040902060060154600160a81b900460ff16155b15610f7d5782610f7981615370565b9350505b80610f8781615370565b915050610f0c565b50816001600160401b03811115610fa857610fa86150c6565b604051908082528060200260200182016040528015610fe157816020015b610fce614aa0565b815260200190600190039081610fc65790505b50925060015b6003548111610b05576000818152600c602052604090205460ff16801561102057506000818152600860208190526040909120015460ff165b80156110455750600081815260086020526040902060060154600160a81b900460ff16155b15611317576000818152600860209081526040918290208251610160810184528154815260018201546001600160a01b03169281019290925260028101805492939192918401916110959061538b565b80601f01602080910402602001604051908101604052809291908181526020018280546110c19061538b565b801561110e5780601f106110e35761010080835404028352916020019161110e565b820191906000526020600020905b8154815290600101906020018083116110f157829003601f168201915b505050505081526020016003820180546111279061538b565b80601f01602080910402602001604051908101604052809291908181526020018280546111539061538b565b80156111a05780601f10611175576101008083540402835291602001916111a0565b820191906000526020600020905b81548152906001019060200180831161118357829003601f168201915b505050505081526020016004820180546111b99061538b565b80601f01602080910402602001604051908101604052809291908181526020018280546111e59061538b565b80156112325780601f1061120757610100808354040283529160200191611232565b820191906000526020600020905b81548152906001019060200180831161121557829003601f168201915b505050505081526020016005820180548060200260200160405190810160405280929190818152602001828054801561129457602002820191906000526020600020905b81546001600160a01b03168152600190910190602001808311611276575b505050918352505060068201546001600160a01b038116602083015260ff600160a01b8204811615156040840152600160a81b90910481161515606083015260078301546080830152600890920154909116151560a09091015284836112f981615370565b94508151811061130b5761130b6153c6565b60200260200101819052505b8061132181615370565b915050610fe7565b6000818152600c602052604090205460ff166113575760405162461bcd60e51b8152600401610b4690615409565b6000818152600860205260409020600101546001600160a01b03163314156113b65760405162461bcd60e51b81526020600482015260126024820152714f776e65722063616e6e6f74206170706c7960701b6044820152606401610b46565b6000818152600860208190526040909120015460ff166114185760405162461bcd60e51b815260206004820152601e60248201527f41737369676e6d656e74206973206e6f206c6f6e6765722061637469766500006044820152606401610b46565b6000818152600d6020908152604080832033845290915290205460ff16156114825760405162461bcd60e51b815260206004820152601860248201527f596f75206861766520616c7265616479206170706c69656400000000000000006044820152606401610b46565b6000818152600d6020908152604080832033808552908352818420805460ff1916600190811790915594845260088352908320600501805494850181558352912090910180546001600160a01b0319169091179055565b606060066000838152602001908152602001600020805480602002602001604051908101604052809291908181526020016000905b82821015611576576000848152602090819020604080516080810182526003860290920180548352600180820154848601526002909101546001600160a01b03811692840192909252600160a01b90910460ff1615156060830152908352909201910161150e565b505050509050919050565b60008181526005602052604090206009015460609060ff1680156115b357506000828152600a602052604090205460ff165b1561163657600082815260076020908152604080832080548251818502810185019093528083529193909284015b82821015611576576000848152602090819020604080516060810182526003860290920180548352600180820154848601526002909101546001600160a01b03169183019190915290835290920191016115e1565b6040805160008082526020820190925290611667565b611654614a76565b81526020019060019003908161164c5790505b5090505b919050565b6000818152600c602052604090205460ff1661169e5760405162461bcd60e51b8152600401610b4690615409565b6000818152600860205260409020600601546001600160a01b031633146117125760405162461bcd60e51b815260206004820152602260248201527f4f6e6c792061636365707465642073747564656e742063616e20636f6d706c65604482015261746560f01b6064820152608401610b46565b600081815260086020526040902060060154600160a01b900460ff161561176f5760405162461bcd60e51b8152602060048201526011602482015270105b1c9958591e4818dbdb5c1b195d1959607a1b6044820152606401610b46565b6000908152600860205260409020600601805460ff60a01b1916600160a01b179055565b61179b614aa0565b6000828152600860209081526040918290208251610160810184528154815260018201546001600160a01b03169281019290925260028101805492939192918401916117e69061538b565b80601f01602080910402602001604051908101604052809291908181526020018280546118129061538b565b801561185f5780601f106118345761010080835404028352916020019161185f565b820191906000526020600020905b81548152906001019060200180831161184257829003601f168201915b505050505081526020016003820180546118789061538b565b80601f01602080910402602001604051908101604052809291908181526020018280546118a49061538b565b80156118f15780601f106118c6576101008083540402835291602001916118f1565b820191906000526020600020905b8154815290600101906020018083116118d457829003601f168201915b5050505050815260200160048201805461190a9061538b565b80601f01602080910402602001604051908101604052809291908181526020018280546119369061538b565b80156119835780601f1061195857610100808354040283529160200191611983565b820191906000526020600020905b81548152906001019060200180831161196657829003601f168201915b50505050508152602001600582018054806020026020016040519081016040528092919081815260200182805480156119e557602002820191906000526020600020905b81546001600160a01b031681526001909101906020018083116119c7575b505050918352505060068201546001600160a01b038116602083015260ff600160a01b8204811615156040840152600160a81b90910481161515606083015260078301546080830152600890920154909116151560a09091015292915050565b6000835111611a8f5760405162461bcd60e51b8152602060048201526016602482015275506c656173652070726f766964652061207469746c6560501b6044820152606401610b46565b6000825111611ae05760405162461bcd60e51b815260206004820152601c60248201527f506c656173652070726f766964652061206465736372697074696f6e000000006044820152606401610b46565b6000815111611b275760405162461bcd60e51b8152602060048201526013602482015272506c656173652070726f76696465207461677360681b6044820152606401610b46565b611b35600380546001019055565b6000611b4060035490565b9050611b4a614aa0565b8181523360208201526040810185905260608101849052608081018390526001610140820152611b78614875565b61012082015260008281526008602090815260409182902083518155818401516001820180546001600160a01b0319166001600160a01b03909216919091179055918301518051849392611bd3926002850192910190614b12565b5060608201518051611bef916003840191602090910190614b12565b5060808201518051611c0b916004840191602090910190614b12565b5060a08201518051611c27916005840191602090910190614b96565b5060c082015160068201805460e08501516101008601511515600160a81b0260ff60a81b19911515600160a01b026001600160a81b03199093166001600160a01b039095169490941791909117169190911790556101208201516007820155610140909101516008909101805491151560ff199283161790556000928352600c6020526040909220805490921660011790915550505050565b6000818152600a602052604090205460ff16611cee5760405162461bcd60e51b8152600401610b4690615440565b60008181526005602052604090206009015460ff16611d495760405162461bcd60e51b81526020600482015260176024820152762a3434b9903537b1103430b9903132b2b7103a30b5b2b760491b6044820152606401610b46565b60008181526005602052604090206007015460ff1615611d7b5760405162461bcd60e51b8152600401610b4690615477565b6000818152600a60209081526040808320805460ff19169055600590915290206001810154600690910154611db9916001600160a01b031690614894565b50565b6000848152600a602052604090205460ff16611dea5760405162461bcd60e51b8152600401610b4690615440565b60008481526005602052604090206009015460ff16611e455760405162461bcd60e51b81526020600482015260176024820152762a3434b9903537b1103430b9903132b2b7103a30b5b2b760491b6044820152606401610b46565b60008481526005602052604090206007015460ff1615611e775760405162461bcd60e51b8152600401610b4690615477565b60008481526005602090815260409091208451611e9c92600390920191860190614b12565b5060008481526005602090815260409091208351611ec292600490920191850190614b12565b5060008481526005602081815260409092208351611ee893919092019190840190614b12565b5050505050565b606060008060015b6002548111611f72576000818152600a602052604090205460ff168015611f2f575060008181526005602052604090206009015460ff165b8015611f4d575060008181526005602052604090206007015460ff16155b15611f605782611f5c81615370565b9350505b80611f6a81615370565b915050611ef7565b50816001600160401b03811115611f8b57611f8b6150c6565b604051908082528060200260200182016040528015611fc457816020015b611fb16149fd565b815260200190600190039081611fa95790505b50925060015b6002548111610b05576000818152600a602052604090205460ff168015612002575060008181526005602052604090206009015460ff165b8015612020575060008181526005602052604090206007015460ff16155b156122fe576000818152600560209081526040918290208251610180810184528154815260018201546001600160a01b03908116938201939093526002820154909216928201929092526003820180549192916060840191906120829061538b565b80601f01602080910402602001604051908101604052809291908181526020018280546120ae9061538b565b80156120fb5780601f106120d0576101008083540402835291602001916120fb565b820191906000526020600020905b8154815290600101906020018083116120de57829003601f168201915b505050505081526020016004820180546121149061538b565b80601f01602080910402602001604051908101604052809291908181526020018280546121409061538b565b801561218d5780601f106121625761010080835404028352916020019161218d565b820191906000526020600020905b81548152906001019060200180831161217057829003601f168201915b505050505081526020016005820180546121a69061538b565b80601f01602080910402602001604051908101604052809291908181526020018280546121d29061538b565b801561221f5780601f106121f45761010080835404028352916020019161221f565b820191906000526020600020905b81548152906001019060200180831161220257829003601f168201915b50505091835250506006820154602080830191909152600783015460ff9081161515604080850191909152600885015460608501526009850154808316151560808601526101009004909116151560a0840152600a8401805482518185028101850190935280835260c09094019391929091908301828280156122cb57602002820191906000526020600020905b81546001600160a01b031681526001909101906020018083116122ad575b5050505050815250508483806122e090615370565b9450815181106122f2576122f26153c6565b60200260200101819052505b8061230881615370565b915050611fca565b6123186148f9565b6123226000614953565b565b60008181526005602052604090206001015481906001600160a01b0316331461235f5760405162461bcd60e51b8152600401610b46906153dc565b6000828152600a602052604090205460ff1661238d5760405162461bcd60e51b8152600401610b4690615440565b600082815260056020526040902060090154610100900460ff16156123f45760405162461bcd60e51b815260206004820152601960248201527f54686973206a6f6220616c7265616479206469737075746564000000000000006044820152606401610b46565b60008281526005602052604090206007015460ff16156124265760405162461bcd60e51b8152600401610b4690615477565b506000908152600560205260409020600901805461ff001916610100179055565b6060600061245460025490565b6001600160401b0381111561246b5761246b6150c6565b6040519080825280602002602001820160405280156124a457816020015b612491614a76565b8152602001906001900390816124895790505b509050600060015b600254811161263f576000818152600a602052604090205460ff1680156124e4575060008181526005602052604090206009015460ff165b8015612502575060008181526005602052604090206007015460ff16155b1561262d576000818152600b6020908152604080832033845290915290205460ff161561262d5760005b60008281526007602052604090205481101561262b576000828152600760205260409020805433919083908110612565576125656153c6565b60009182526020909120600260039092020101546001600160a01b031614156126195760008281526007602052604090208054829081106125a8576125a86153c6565b6000918252602091829020604080516060810182526003909302909101805483526001810154938301939093526002909201546001600160a01b03169181019190915284518590859081106125ff576125ff6153c6565b6020026020010181905250828061261590615370565b9350505b8061262381615370565b91505061252c565b505b8061263781615370565b9150506124ac565b50806001600160401b03811115612658576126586150c6565b60405190808252806020026020018201604052801561269157816020015b61267e614a76565b8152602001906001900390816126765790505b50925060005b81811015610b05578281815181106126b1576126b16153c6565b60200260200101518482815181106126cb576126cb6153c6565b602002602001018190525080806126e190615370565b915050612697565b606060008060015b6002548111612756576000818152600a602052604090205460ff16801561273157506000818152600560205260409020600101546001600160a01b031633145b15612744578261274081615370565b9350505b8061274e81615370565b9150506126f1565b50816001600160401b0381111561276f5761276f6150c6565b6040519080825280602002602001820160405280156127a857816020015b6127956149fd565b81526020019060019003908161278d5790505b50925060015b6002548111610b05576000818152600a602052604090205460ff1680156127ee57506000818152600560205260409020600101546001600160a01b031633145b15612acc576000818152600560209081526040918290208251610180810184528154815260018201546001600160a01b03908116938201939093526002820154909216928201929092526003820180549192916060840191906128509061538b565b80601f016020809104026020016040519081016040528092919081815260200182805461287c9061538b565b80156128c95780601f1061289e576101008083540402835291602001916128c9565b820191906000526020600020905b8154815290600101906020018083116128ac57829003601f168201915b505050505081526020016004820180546128e29061538b565b80601f016020809104026020016040519081016040528092919081815260200182805461290e9061538b565b801561295b5780601f106129305761010080835404028352916020019161295b565b820191906000526020600020905b81548152906001019060200180831161293e57829003601f168201915b505050505081526020016005820180546129749061538b565b80601f01602080910402602001604051908101604052809291908181526020018280546129a09061538b565b80156129ed5780601f106129c2576101008083540402835291602001916129ed565b820191906000526020600020905b8154815290600101906020018083116129d057829003601f168201915b50505091835250506006820154602080830191909152600783015460ff9081161515604080850191909152600885015460608501526009850154808316151560808601526101009004909116151560a0840152600a8401805482518185028101850190935280835260c0909401939192909190830182828015612a9957602002820191906000526020600020905b81546001600160a01b03168152600190910190602001808311612a7b575b505050505081525050848380612aae90615370565b945081518110612ac057612ac06153c6565b60200260200101819052505b80612ad681615370565b9150506127ae565b612ae66148f9565b6000818152600a602052604090205460ff16612b145760405162461bcd60e51b8152600401610b4690615440565b600081815260056020526040902060090154610100900460ff16612b7a5760405162461bcd60e51b815260206004820152601b60248201527f54686973206a6f62206d757374206265206f6e206469737075746500000000006044820152606401610b46565b60008181526005602052604090206007015460ff1615612bac5760405162461bcd60e51b8152600401610b4690615477565b6000908152600560205260409020600901805461ff0019169055565b6000818152600c602052604090205460609060ff16612c295760405162461bcd60e51b815260206004820152601860248201527f41737369676e6d656e7420646f65736e277420657869737400000000000000006044820152606401610b46565b60008281526008602090815260409182902060050180548351818402810184019094528084529091830182828015612c8a57602002820191906000526020600020905b81546001600160a01b03168152600190910190602001808311612c6c575b50505050509050919050565b612c9e6148f9565b6000828152600a602052604090205460ff16612ccc5760405162461bcd60e51b8152600401610b4690615440565b600082815260056020526040902060090154610100900460ff16612d325760405162461bcd60e51b815260206004820152601b60248201527f54686973206a6f62206d757374206265206f6e206469737075746500000000006044820152606401610b46565b60008281526005602052604090206007015460ff1615612d645760405162461bcd60e51b8152600401610b4690615477565b6000828152600660205260408120805483908110612d8457612d846153c6565b600091825260208083206002600390930201828101805460ff60a01b191690558684526005909152604090922090810180546001600160a01b03191690556001810154600690910154919250612de6916001600160a01b039190911690614894565b50506000908152600560205260409020600901805460ff19166001179055565b612e0e6149fd565b6000828152600560209081526040918290208251610180810184528154815260018201546001600160a01b0390811693820193909352600282015490921692820192909252600382018054919291606084019190612e6b9061538b565b80601f0160208091040260200160405190810160405280929190818152602001828054612e979061538b565b8015612ee45780601f10612eb957610100808354040283529160200191612ee4565b820191906000526020600020905b815481529060010190602001808311612ec757829003601f168201915b50505050508152602001600482018054612efd9061538b565b80601f0160208091040260200160405190810160405280929190818152602001828054612f299061538b565b8015612f765780601f10612f4b57610100808354040283529160200191612f76565b820191906000526020600020905b815481529060010190602001808311612f5957829003601f168201915b50505050508152602001600582018054612f8f9061538b565b80601f0160208091040260200160405190810160405280929190818152602001828054612fbb9061538b565b80156130085780601f10612fdd57610100808354040283529160200191613008565b820191906000526020600020905b815481529060010190602001808311612feb57829003601f168201915b50505091835250506006820154602080830191909152600783015460ff9081161515604080850191909152600885015460608501526009850154808316151560808601526101009004909116151560a0840152600a8401805482518185028101850190935280835260c09094019391929091908301828280156130b457602002820191906000526020600020905b81546001600160a01b03168152600190910190602001808311613096575b5050505050815250509050919050565b606060006130d160025490565b6001600160401b038111156130e8576130e86150c6565b60405190808252806020026020018201604052801561312157816020015b61310e6149fd565b8152602001906001900390816131065790505b509050600060015b6002548111613493576000818152600a602052604090205460ff168015613161575060008181526005602052604090206009015460ff165b801561317f575060008181526005602052604090206007015460ff16155b15613481576000818152600b6020908152604080832033845290915290205460ff1615613481576000818152600560209081526040918290208251610180810184528154815260018201546001600160a01b03908116938201939093526002820154909216928201929092526003820180549192916060840191906132039061538b565b80601f016020809104026020016040519081016040528092919081815260200182805461322f9061538b565b801561327c5780601f106132515761010080835404028352916020019161327c565b820191906000526020600020905b81548152906001019060200180831161325f57829003601f168201915b505050505081526020016004820180546132959061538b565b80601f01602080910402602001604051908101604052809291908181526020018280546132c19061538b565b801561330e5780601f106132e35761010080835404028352916020019161330e565b820191906000526020600020905b8154815290600101906020018083116132f157829003601f168201915b505050505081526020016005820180546133279061538b565b80601f01602080910402602001604051908101604052809291908181526020018280546133539061538b565b80156133a05780601f10613375576101008083540402835291602001916133a0565b820191906000526020600020905b81548152906001019060200180831161338357829003601f168201915b50505091835250506006820154602080830191909152600783015460ff9081161515604080850191909152600885015460608501526009850154808316151560808601526101009004909116151560a0840152600a8401805482518185028101850190935280835260c090940193919290919083018282801561344c57602002820191906000526020600020905b81546001600160a01b0316815260019091019060200180831161342e575b505050505081525050838381518110613467576134676153c6565b6020026020010181905250818061347d90615370565b9250505b8061348b81615370565b915050613129565b50806001600160401b038111156134ac576134ac6150c6565b6040519080825280602002602001820160405280156134e557816020015b6134d26149fd565b8152602001906001900390816134ca5790505b50925060005b81811015610b0557828181518110613505576135056153c6565b602002602001015184828151811061351f5761351f6153c6565b6020026020010181905250808061353590615370565b9150506134eb565b600083511161358e5760405162461bcd60e51b815260206004820152601a60248201527f506c656173652070726f766964652061206a6f62207469746c650000000000006044820152606401610b46565b60008251116135df5760405162461bcd60e51b815260206004820152601c60248201527f506c656173652070726f766964652061206465736372697074696f6e000000006044820152606401610b46565b60008151116136265760405162461bcd60e51b8152602060048201526013602482015272506c656173652070726f76696465207461677360681b6044820152606401610b46565b6000341161366b5760405162461bcd60e51b8152602060048201526012602482015271496e73756666696369656e742066756e647360701b6044820152606401610b46565b613679600280546001019055565b600061368460025490565b905061368e6149fd565b818152336020820152606081018590526080810184905260a081018390523460c082015260016101208201526136c2614875565b61010082015260008281526005602090815260409182902083518155818401516001820180546001600160a01b03199081166001600160a01b03938416179091559385015160028301805490951691161790925560608301518051849392613731926003850192910190614b12565b506080820151805161374d916004840191602090910190614b12565b5060a08201518051613769916005840191602090910190614b12565b5060c0820151600682015560e082015160078201805460ff191691151591909117905561010080830151600883015561012083015160098301805461014086015161ffff1990911692151561ff0019169290921791151590920217905561016082015180516137e291600a840191602090910190614b96565b505050600091825250600a60205260409020805460ff19166001179055505050565b60008181526008602052604090206001015481906001600160a01b0316331461383f5760405162461bcd60e51b8152600401610b46906153dc565b6000828152600c602052604090205460ff1661386d5760405162461bcd60e51b8152600401610b4690615409565b600082815260086020526040902060060154600160a01b900460ff166138e05760405162461bcd60e51b815260206004820152602260248201527f41737369676e6d656e74206d75737420626520636f6d706c65746564206669726044820152611cdd60f21b6064820152608401610b46565b600082815260086020526040902060060154600160a81b900460ff16156139495760405162461bcd60e51b815260206004820152601a60248201527f436572746966696361746520616c7265616479206973737565640000000000006044820152606401610b46565b6000828152600860205260409081902060068101805460ff60a81b198116600160a81b1790915591516001600160a01b039092169184917fb7ff6cbe8f0282bf405f9ce3210be62c5620d39139a49186436e3f0fcc6a315a916139af91600201906154c6565b60405180910390a35050565b606060008060015b6003548111613a28576000818152600c602052604090205460ff168015613a0357506000818152600860205260409020600101546001600160a01b031633145b15613a165782613a1281615370565b9350505b80613a2081615370565b9150506139c3565b50816001600160401b03811115613a4157613a416150c6565b604051908082528060200260200182016040528015613a7a57816020015b613a67614aa0565b815260200190600190039081613a5f5790505b50925060015b6003548111610b05576000818152600c602052604090205460ff168015613ac057506000818152600860205260409020600101546001600160a01b031633145b15613d92576000818152600860209081526040918290208251610160810184528154815260018201546001600160a01b0316928101929092526002810180549293919291840191613b109061538b565b80601f0160208091040260200160405190810160405280929190818152602001828054613b3c9061538b565b8015613b895780601f10613b5e57610100808354040283529160200191613b89565b820191906000526020600020905b815481529060010190602001808311613b6c57829003601f168201915b50505050508152602001600382018054613ba29061538b565b80601f0160208091040260200160405190810160405280929190818152602001828054613bce9061538b565b8015613c1b5780601f10613bf057610100808354040283529160200191613c1b565b820191906000526020600020905b815481529060010190602001808311613bfe57829003601f168201915b50505050508152602001600482018054613c349061538b565b80601f0160208091040260200160405190810160405280929190818152602001828054613c609061538b565b8015613cad5780601f10613c8257610100808354040283529160200191613cad565b820191906000526020600020905b815481529060010190602001808311613c9057829003601f168201915b5050505050815260200160058201805480602002602001604051908101604052809291908181526020018280548015613d0f57602002820191906000526020600020905b81546001600160a01b03168152600190910190602001808311613cf1575b505050918352505060068201546001600160a01b038116602083015260ff600160a01b8204811615156040840152600160a81b90910481161515606083015260078301546080830152600890920154909116151560a0909101528483613d7481615370565b945081518110613d8657613d866153c6565b60200260200101819052505b80613d9c81615370565b915050613a80565b60008281526005602052604090206001015482906001600160a01b03163314613ddf5760405162461bcd60e51b8152600401610b46906153dc565b6000838152600a602052604090205460ff16613e0d5760405162461bcd60e51b8152600401610b4690615440565b60008381526005602052604090206009015460ff16613e695760405162461bcd60e51b81526020600482015260186024820152772a3434b9903537b1103430bb32903132b2b7103a30b5b2b760411b6044820152606401610b46565b60008381526005602052604090206007015460ff1615613e9b5760405162461bcd60e51b8152600401610b4690615477565b6000838152600b602090815260408083206001600160a01b038616845290915290205460ff16613f035760405162461bcd60e51b81526020600482015260136024820152722ab724b232b73a34b334b2b2103134b23232b960691b6044820152606401610b46565b613f0b614beb565b600084815260066020818152604080842080548087528684018a81526001600160a01b03808b16898601818152600160608c018181529989528086018755958a52878a208b5160039096020194855592519484019490945590516002928301805497511515600160a01b026001600160a81b03199098169190921617959095179094558885526005909252832090910180546001600160a01b03191690911790555b600085815260076020526040902054811015614079576000858152600760205260409020805487919083908110613fe657613fe66153c6565b90600052602060002090600302016000015414614067576000858152600b602090815260408083206007909252822080548391908590811061402a5761402a6153c6565b60009182526020808320600392909202909101600201546001600160a01b031683528201929092526040019020805460ff19169115159190911790555b8061407181615370565b915050613fad565b505050600091825250600560205260409020600901805460ff1916905550565b6140a16149a3565b60008181526005602052604090206001015481906001600160a01b031633146140dc5760405162461bcd60e51b8152600401610b46906153dc565b6000828152600a602052604090205460ff1661410a5760405162461bcd60e51b8152600401610b4690615440565b60008281526005602052604090206009015460ff161561416c5760405162461bcd60e51b815260206004820152601b60248201527f54686973206a6f6220686173206e6f74206265656e2074616b656e00000000006044820152606401610b46565b600082815260056020526040902060090154610100900460ff16156141d35760405162461bcd60e51b815260206004820152601f60248201527f54686973206a6f62206d757374206e6f74206265206f6e2064697370757465006044820152606401610b46565b60008281526005602052604090206007015460ff16156142055760405162461bcd60e51b8152600401610b4690615477565b60008281526005602052604081206006015460045490919060649061422a908461556e565b614234919061558d565b600085815260056020526040902060020154909150614265906001600160a01b031661426083856155af565b614894565b61428061427a6000546001600160a01b031690565b82614894565b5050506000818152600560205260409020600701805460ff19166001179055611db960018055565b606060008060015b6003548111614333576000818152600c602052604090205460ff1680156142e957506000818152600860208190526040909120015460ff165b801561430e57506000818152600d6020908152604080832033845290915290205460ff165b15614321578261431d81615370565b9350505b8061432b81615370565b9150506142b0565b50816001600160401b0381111561434c5761434c6150c6565b60405190808252806020026020018201604052801561438557816020015b614372614aa0565b81526020019060019003908161436a5790505b50925060015b6003548111610b05576000818152600c602052604090205460ff1680156143c457506000818152600860208190526040909120015460ff165b80156143e957506000818152600d6020908152604080832033845290915290205460ff165b156146bb576000818152600860209081526040918290208251610160810184528154815260018201546001600160a01b03169281019290925260028101805492939192918401916144399061538b565b80601f01602080910402602001604051908101604052809291908181526020018280546144659061538b565b80156144b25780601f10614487576101008083540402835291602001916144b2565b820191906000526020600020905b81548152906001019060200180831161449557829003601f168201915b505050505081526020016003820180546144cb9061538b565b80601f01602080910402602001604051908101604052809291908181526020018280546144f79061538b565b80156145445780601f1061451957610100808354040283529160200191614544565b820191906000526020600020905b81548152906001019060200180831161452757829003601f168201915b5050505050815260200160048201805461455d9061538b565b80601f01602080910402602001604051908101604052809291908181526020018280546145899061538b565b80156145d65780601f106145ab576101008083540402835291602001916145d6565b820191906000526020600020905b8154815290600101906020018083116145b957829003601f168201915b505050505081526020016005820180548060200260200160405190810160405280929190818152602001828054801561463857602002820191906000526020600020905b81546001600160a01b0316815260019091019060200180831161461a575b505050918352505060068201546001600160a01b038116602083015260ff600160a01b8204811615156040840152600160a81b90910481161515606083015260078301546080830152600890920154909116151560a090910152848361469d81615370565b9450815181106146af576146af6153c6565b60200260200101819052505b806146c581615370565b91505061438b565b6146d5614beb565b6000828152600a602052604090205460ff166147035760405162461bcd60e51b8152600401610b4690615440565b60005b6000838152600660205260409020548110156147f057600083815260066020526040902080548290811061473c5761473c6153c6565b906000526020600020906003020160020160149054906101000a900460ff16156147de576000838152600660205260409020805482908110614780576147806153c6565b600091825260209182902060408051608081018252600393909302909101805483526001810154938301939093526002909201546001600160a01b03811692820192909252600160a01b90910460ff16151560608201529392505050565b806147e881615370565b915050614706565b506147f9614beb565b92915050565b6148076148f9565b6001600160a01b03811661486c5760405162461bcd60e51b815260206004820152602660248201527f4f776e61626c653a206e6577206f776e657220697320746865207a65726f206160448201526564647265737360d01b6064820152608401610b46565b611db981614953565b6000614883426103e861556e565b61488f906103e86154ae565b905090565b6000826001600160a01b03168260405160006040518083038185875af1925050503d80600081146148e1576040519150601f19603f3d011682016040523d82523d6000602084013e6148e6565b606091505b50509050806148f457600080fd5b505050565b6000546001600160a01b031633146123225760405162461bcd60e51b815260206004820181905260248201527f4f776e61626c653a2063616c6c6572206973206e6f7420746865206f776e65726044820152606401610b46565b600080546001600160a01b038381166001600160a01b0319831681178455604051919092169283917f8be0079c531659141344cd1fd0a4f28419497f9722a3daafe3b4186f6b6457e09190a35050565b600260015414156149f65760405162461bcd60e51b815260206004820152601f60248201527f5265656e7472616e637947756172643a207265656e7472616e742063616c6c006044820152606401610b46565b6002600155565b6040518061018001604052806000815260200160006001600160a01b0316815260200160006001600160a01b031681526020016060815260200160608152602001606081526020016000815260200160001515815260200160008152602001600015158152602001600015158152602001606081525090565b6040518060600160405280600081526020016000815260200160006001600160a01b031681525090565b6040518061016001604052806000815260200160006001600160a01b031681526020016060815260200160608152602001606081526020016060815260200160006001600160a01b03168152602001600015158152602001600015158152602001600081526020016000151581525090565b828054614b1e9061538b565b90600052602060002090601f016020900481019282614b405760008555614b86565b82601f10614b5957805160ff1916838001178555614b86565b82800160010185558215614b86579182015b82811115614b86578251825591602001919060010190614b6b565b50614b92929150614c1e565b5090565b828054828255906000526020600020908101928215614b86579160200282015b82811115614b8657825182546001600160a01b0319166001600160a01b03909116178255602090920191600190910190614bb6565b6040518060800160405280600081526020016000815260200160006001600160a01b031681526020016000151581525090565b5b80821115614b925760008155600101614c1f565b80356001600160a01b038116811461166b57600080fd5b60008060408385031215614c5d57600080fd5b82359150614c6d60208401614c33565b90509250929050565b6000815180845260005b81811015614c9c57602081850181015186830182015201614c80565b81811115614cae576000602083870101525b50601f01601f19169290920160200192915050565b600081518084526020808501945080840160005b83811015614cfc5781516001600160a01b031687529582019590820190600101614cd7565b509495945050505050565b6000610180825184526020830151614d2a60208601826001600160a01b03169052565b506040830151614d4560408601826001600160a01b03169052565b506060830151816060860152614d5d82860182614c76565b91505060808301518482036080860152614d778282614c76565b91505060a083015184820360a0860152614d918282614c76565b91505060c083015160c085015260e0830151614db160e086018215159052565b50610100838101519085015261012080840151151590850152610140808401511515908501526101608084015185830382870152614def8382614cc3565b9695505050505050565b6000602080830181845280855180835260408601915060408160051b870101925083870160005b82811015614e4e57603f19888603018452614e3c858351614d07565b94509285019290850190600101614e20565b5092979650505050505050565b60008060408385031215614e6e57600080fd5b50508035926020909101359150565b600060208284031215614e8f57600080fd5b5035919050565b6000610160825184526020830151614eb960208601826001600160a01b03169052565b506040830151816040860152614ed182860182614c76565b91505060608301518482036060860152614eeb8282614c76565b91505060808301518482036080860152614f058282614c76565b91505060a083015184820360a0860152614f1f8282614cc3565b91505060c0830151614f3c60c08601826001600160a01b03169052565b5060e0830151614f5060e086018215159052565b5061010083810151151590850152610120808401519085015261014092830151151592909301919091525090565b6000602080830181845280855180835260408601915060408160051b870101925083870160005b82811015614e4e57603f19888603018452614fc1858351614e96565b94509285019290850190600101614fa5565b6020808252825182820181905260009190848201906040850190845b8181101561503e5761502b83855180518252602080820151908301526040808201516001600160a01b0316908301526060908101511515910152565b9284019260809290920191600101614fef565b50909695505050505050565b602080825282518282018190526000919060409081850190868401855b8281101561509f5781518051855286810151878601528501516001600160a01b03168585015260609093019290850190600101615067565b5091979650505050505050565b6020815260006150bf6020830184614e96565b9392505050565b634e487b7160e01b600052604160045260246000fd5b600082601f8301126150ed57600080fd5b81356001600160401b0380821115615107576151076150c6565b604051601f8301601f19908116603f0116810190828211818310171561512f5761512f6150c6565b8160405283815286602085880101111561514857600080fd5b836020870160208301376000602085830101528094505050505092915050565b60008060006060848603121561517d57600080fd5b83356001600160401b038082111561519457600080fd5b6151a0878388016150dc565b945060208601359150808211156151b657600080fd5b6151c2878388016150dc565b935060408601359150808211156151d857600080fd5b506151e5868287016150dc565b9150509250925092565b6000806000806080858703121561520557600080fd5b8435935060208501356001600160401b038082111561522357600080fd5b61522f888389016150dc565b9450604087013591508082111561524557600080fd5b615251888389016150dc565b9350606087013591508082111561526757600080fd5b50615274878288016150dc565b91505092959194509250565b6020808252825182820181905260009190848201906040850190845b8181101561503e5783516001600160a01b03168352928401929184019160010161529c565b6020815260006150bf6020830184614d07565b6000806000606084860312156152e957600080fd5b833592506020840135915061530060408501614c33565b90509250925092565b81518152602080830151908201526040808301516001600160a01b031690820152606080830151151590820152608081016147f9565b60006020828403121561535157600080fd5b6150bf82614c33565b634e487b7160e01b600052601160045260246000fd5b60006000198214156153845761538461535a565b5060010190565b600181811c9082168061539f57607f821691505b602082108114156153c057634e487b7160e01b600052602260045260246000fd5b50919050565b634e487b7160e01b600052603260045260246000fd5b602080825260139082015272556e617574686f72697a656420656e7469747960681b604082015260600190565b6020808252601d908201527f546869732061737369676e6d656e7420646f65736e2774206578697374000000604082015260600190565b6020808252601e908201527f54686973206a6f62206c697374696e6720646f65736e27742065786973740000604082015260600190565b6020808252601a908201527f54686973206a6f6220686173206265656e2070616964206f7574000000000000604082015260600190565b600082198211156154c1576154c161535a565b500190565b600060208083526000845481600182811c9150808316806154e857607f831692505b85831081141561550657634e487b7160e01b85526022600452602485fd5b87860183815260200181801561552357600181146155345761555f565b60ff1986168252878201965061555f565b60008b81526020902060005b8681101561555957815484820152908501908901615540565b83019750505b50949998505050505050505050565b60008160001904831182151516156155885761558861535a565b500290565b6000826155aa57634e487b7160e01b600052601260045260246000fd5b500490565b6000828210156155c1576155c161535a565b50039056fea264697066735822122088305637461a85075643930a5da24a43827545110c6fcf0b1b28d272d77889dc64736f6c634300080b0033",
  "linkReferences": {},
  "deployedLinkReferences": {}
}